:020000040800F2
:10000000F84B0020B10100080D200008E91F00088E
:100010000920000849080008E13400080000000039
:100020000000000000000000000000006533000830
:100030004D08000800000000112000086933000886
:10004000CB010008CB010008CB010008CB01000860
:10005000CB010008CB010008CB010008CB01000850
:10006000CB010008CB010008CB010008CB01000840
:10007000CB010008CB010008CB010008CB01000830
:10008000CB010008CB010008CB010008CB01000820
:10009000CB010008CB010008CB010008CB01000810
:1000A000CB010008CB010008CB010008CB01000800
:1000B000CB010008CB010008CB010008CB010008F0
:1000C000CB010008CB010008CB010008CB010008E0
:1000D000CB010008C1340008CB010008CB010008A7
:1000E00051080008CB010008CB01000800F002F81D
:1000F00000F04EF80AA090E8000C82448344AAF174
:100100000107DA4501D100F043F8AFF2090EBAE871
:100110000F0013F0010F18BFFB1A43F0010318473B
:1001200014B7000034B70000103A24BF78C878C173
:10013000FAD8520724BF30C830C144BF04680C60ED
:10014000704700000023002400250026103A28BF35
:1001500078C1FBD8520728BF30C148BF0B60704739
:10016000642900F0B980632900F04582732900F00A
:100170004A82002070471FB500F002FB04000020F7
:1001800000210AF05BFF401C60601FBD10B510BD70
:1001900000F0D1FA1146FFF7EEFF07F0DBFC00F0AC
:1001A00001FB03B4FFF7F2FF03BC00F045FB0000C6
:1001B0000948804709480047FEE7FEE7FEE7FEE7FB
:1001C000FEE7FEE7FEE7FEE7FEE7FEE70448054937
:1001D000054A064B70470000A1330008ED000008F7
:1001E000F8450020F84B0020F8470020F847002091
:1001F0000FB41CB5084B06AA7B44694600900598CD
:1002000000F0D7F904460020694600F0E5F92046E1
:100210001CBC5DF814FB0000DD0300002DE9F0417B
:100220000E460446002020622046E168884730B32D
:10023000252805D0D4E901219047206A401CF2E727
:10024000E168204600278847050018D0A5F1410045
:10025000192802D820354FF4006732462946204637
:100260002760FFF77DFF40B1012804D0F61D26F07E
:1002700007060836D8E7361DD6E72846DAE7206AAB
:10028000BDE8F08170B50C460546012A05D02878F6
:10029000800600D5EA69002302E0012305E05B1C2B
:1002A000934202D2E05C0028F9D1A869E618C01A8E
:1002B000A861286A184428622846AFF3008004E049
:1002C000D5E9012114F8010B9047B442F8D3284630
:1002D000AFF3008070BD00002DE9F0410646002418
:1002E00010687529314616A510D0AFF3008000289C
:1002F00002DA404213A507E031688A0701D512A54A
:1003000002E0490704D511A5012401E0AFF3008004
:1003100000210A2206F1240709E0B0FBF2FCB0FB41
:10032000F2F302FB1C00303078541846491C0028B8
:10033000F3D123462A463046BDE8F04100F0DAB852
:10034000000000002D0000002B0000002000000035
:1003500070B5064600F0CAF80468054630460A2221
:10036000002100F054F92C6070BD40EA0103024600
:1003700030B59B0710D14FF0013400E008C208C926
:100380001D1B9D4315EAC41FF8D013F0FF0102F8AE
:10039000011B0DD01B0AF8E711F8013B002B02F8F6
:1003A000013B05D011F8013B002B02F8013BF3D1D2
:1003B00030BD10B5431C02E010F8011B71B181077C
:1003C000FAD14FF0013202C88C1A8C4314EAC211E0
:1003D000F9D0C01A0A0603D0C01E10BDC01A10BD45
:1003E0000A0401D0801E10BD0902FCD0401E10BDC1
:1003F00010B5203AC0F00B80B1E81850A0E81850B2
:10040000B1E81850A0E81850203ABFF4F5AF5FEA01
:10041000027C24BFB1E81850A0E8185044BF18C9A6
:1004200018C0BDE810405FEA827C24BF51F8043B4D
:1004300040F8043B08BF7047D20728BF31F8023BA1
:1004400048BF11F8012B28BF20F8023B48BF00F835
:10045000012B70474FF000020429C0F0128010F009
:10046000030C00F01B80CCF1040CBCF1020F18BF90
:1004700000F8012BA8BF20F8022BA1EB0C0100F023
:100480000DB85FEAC17C24BF00F8012B00F8012BF6
:1004900048BF00F8012B70474FF0000200B513462B
:1004A00094469646203922BFA0E80C50A0E80C5094
:1004B000B1F12001BFF4F7AF090728BFA0E80C5045
:1004C00048BF0CC05DF804EB890028BF40F8042B3E
:1004D00008BF704748BF20F8022B11F0804F18BFAB
:1004E00000F8012B7047704770477047004870470D
:1004F000480000202DE9F0470D46994692460446F3
:1005000000F124080168880604D5E06921F0100193
:10051000216000E00120A84201DD471B00E0002728
:10052000A1697A1902EB0900081AA0612078C006B7
:1005300002D42046AFF30080002608E0D4E9012170
:100540001AF806009047206A401C761C20624E452F
:10055000F4DB2078C0060AD52046AFF3008006E021
:10056000D4E9012130209047206A401C2062381EC7
:10057000A7F10107F4DC07E0D4E9012118F8050030
:100580009047206A401C2062281EA5F10105F3DC7B
:100590002046AFF300802078000602D50220BDE897
:1005A000F0870120FBE7000001694A1C026108781E
:1005B000704700B58FB0CDE90131002105910549A3
:1005C0007944CDE9031011466846FFF727FE0FB0C6
:1005D00000BD0000E5FFFFFF0A6802F8010B0A609A
:1005E000704710B5436913B1AFF3008001E0FFF726
:1005F00049FE012010BD127800F124010A7000228A
:100600004A700122EDE711684FF0FF32E9E72DE96A
:10061000F04791460F4680460446002614F8015BD9
:100620002DB100F031F80068405DC007F6D12B2DE8
:1006300002D02D2D18D0641E4A463946204600F0BF
:100640002BF827B13968A14201D1C7F800804FF0DB
:10065000020471050BD54042002803DDFFF746FF79
:100660000460A007BDE8F08746F48066E4E7002850
:10067000F8DAFFF73BFF04606FF00040F2E700009C
:10068000004870474800002010B500F079F8001DC0
:1006900010BD00BFA9A900002DE9F05F82461546F4
:1006A0008B4600270AF10104B9460078302801D0B2
:1006B0009DB113E014F8010B0127782803D05828C6
:1006C00001D045B10AE00DB1102D07D1002714F873
:1006D000010B102502E0082500E00A250026B0469F
:1006E0000EE005FB080005FB06F101271FFA80F864
:1006F00001EB1046B6F5803F00D3B94614F8010B64
:10070000294600F041F80028EBDABBF1000F05D0D4
:100710000FB1641E00E05446CBF80040B9F1000F61
:1007200006D0FFF7E3FE02210160C81EBDE8F09F7E
:1007300048EA0640FAE77546FFF7A2FFAE46050015
:100740006946534620F00700854618B020B5FFF7EC
:100750003DFDBDE820404FF000064FF000074FF090
:1007600000084FF0000BAC46ACE8C009ACE8C0098B
:10077000ACE8C009ACE8C00921F007018D4670471C
:1007800000487047680000203A2800D2303820F036
:100790002002412A01D3A2F13700884201D34FF051
:1007A000FF30704710B50446AFF300802046BDE827
:1007B0001040FFF7F6BC00004FF0013C50F8042B4E
:1007C00051F8043B9A4221D1A2EB0C03934313EA64
:1007D000CC1317D150F8042B51F8043B9A4215D191
:1007E000A2EB0C03934313EACC130BD150F8042B68
:1007F00051F8043B9A4209D1A2EB0C03934313EA4C
:10080000CC13DBD04FF00000704700BFD01A01BA04
:10081000B1FA81F101F0180122FA01F0CB40DBB20C
:10082000C0B2C01AC1F120012CFA01F3D11A9143D0
:1008300011EAC311E6D1704701491820ABBEFEE7AB
:100840002600020070470000FEE70000704700002D
:100850004FF4806000F0B6B880B540F2B053C2F2F9
:1008600000035A7A012A84BF012080BD93F809C091
:100870008646002003F80C005A7A03EB8202C2F885
:1008800004E05A7A1A44107293F809C00CF101027C
:100890005A720CF130020A7042F63A72A1F8012045
:1008A000C87080BD014690F82100022816D1086862
:1008B000D1E90FC3026822F00E020260026822F042
:1008C00001020260012000FA03F2CCF8042081F852
:1008D00021000020002281F8202070470420886336
:1008E0000120002281F820207047000080B590F898
:1008F0002110022924D10268116821F00E01116033
:100900002F211368C4F202018A4240F20401C4F2AA
:10091000020123F00103136016DD3023C4F2020349
:100920009A421DD04423C4F202039A421CD0582399
:10093000C4F202039A421DD14FF4803322E000BF7B
:1009400004218163012080BD0823C4F202039A427E
:100950000ED01C23C4F202039A420BD1102311E0E3
:100960004FF480730EE000BF4FF480530AE000BFE5
:10097000012307E001F1680C4FF08073624508BF66
:100980004FF480130B60416B4FF48072028401B10D
:100990008847002080BD0000B0B5044600F032F961
:1009A000054640F22400C2F200000078611C18BF26
:1009B000044400BF00F026F9401BA042FAD3B0BDAA
:1009C0007047000040F21441C4F201010A6802427B
:1009D00014BF08607047FFF7F3BF00002DE9F04F28
:1009E00082B00E68002E00F0FD8041F20042C4F299
:1009F0000102042340F2004E904208BF03234FF649
:100A0000FF7CC4F2010E009300240123C1F2100CFC
:100A10004FF0000A4FF0000946E000BF012504F046
:100A20000C030F279F402BEA070705FA03F33B430C
:100A300042F82630D1F804B05FEACB32DEF800206D
:100A400054BF22EA080242EA0802CEF80020DEF88B
:100A500004205FEA8B3354BF22EA080242EA08020C
:100A6000CEF804205FEACB23DEF8082054BF22EA48
:100A7000080242EA08025FEA8B2340F20C43CEF8F8
:100A80000820C4F201031A6854BF22EA080242EAAD
:100A900008021A6001230E680AF1010A36FA0AF206
:100AA00004F1040400F09E8003FA0AF816EA080F25
:100AB000F1D04A68624511DC122A55D8DFE802F00D
:100AC000340A44485454545454545454545454546C
:100AD000544C5000D1F80C9046E000BF4FF6FF7523
:100AE000C1F22105AA420FDC0025C1F21105AA427C
:100AF0001AD00025C1F21205AA4215D00025C1F274
:100B00002105AA4210D02FE00025C1F22205AA42F9
:100B10000AD00025C1F23105AA4205D00025C1F254
:100B20003205AA4220D100BF8A684AB1012A14BF07
:100B3000C0F81480C0F810804FF0080914E000BF1E
:100B40004FF0040910E000BFCA6802F108090BE089
:100B50004FF0000908E000BFCA6802F1040903E091
:100B6000CA6802F10C0900BF22460546BAF1080F17
:100B700024BF203A04352E680F279740BE4309FA58
:100B800002F232432A60CA79D2067FF584AF41F27D
:100B90001803C4F202031A684FEA9A0642F00102EF
:100BA0001A601A6840F6000302F001020192019AED
:100BB000AEF57E7252F826B0C4F2010398420FD00F
:100BC00040F60043C4F2010398423FF427AF41F2DC
:100BD0000003C4F20103009D984208BF02251EE7EE
:100BE00000251CE702B0BDE8F08F000080680840D7
:100BF00018BF012070470000002A08BF09040161E6
:100C00007047000044F2F450C2F2000000687047E0
:100C100040F2240044F2F451C2F20000C2F200019A
:100C200000780A68104408607047000080B542F2FE
:100C30000000C4F20200016841F0100101600320CD
:100C400000F08AF80F2000F005F800F027F80020E7
:100C500080BD000070B540F22406C2F2000640F2EA
:100C600030013278C2F200014FF47A730968B3FBA5
:100C7000F2F20446B1FBF2F1084600F039FE0F2C07
:100C80004FF0010508D838B94FF0FF302146002257
:100C9000002500F035F87460284670BD82B041F23E
:100CA0001800C4F202000168022241F00101016053
:100CB000016801F0010101910199416841F0805101
:100CC0004160406800F08050009000980420C4F219
:100CD0000100016862F31A61016002B07047000010
:100CE000002848BF704700F01F01012202FA01F1FD
:100CF0004EF200124009CEF2000242F82010704776
:100D000010B54EF60C5CCEF2000CDCF80030C3F3EC
:100D1000022E8EF00704042C28BF0424BEF1030326
:100D20004FF0FF3E0EFA04F438BF0023A143994070
:100D30000EFA03F39A4300F00F03043B114363449C
:100D400009010C3300F16042B0F1FF3FC8BF02F56A
:100D50006443197010BD00004EF60C51CEF2000134
:100D60000A684FF6FF031A4060F30A2242F08060DF
:100D700040F0FD70086070472DE9F04381B0002815
:100D800000F0858042F20008C4F202080446D8F858
:100D900000000D4600F0070088420CD2D8F8000091
:100DA00020F007002843C8F80000D8F8000000F041
:100DB0000700A8426BD1206841F204098107C4F200
:100DC000020917D5410705D5D9F8001041F4E061B3
:100DD000C9F80010010705D5D9F8001041F4605199
:100DE000C9F80010D9F80010A26821F0F0011143F1
:100DF000C9F80010C00741D1D8F8000000F0070082
:100E0000A8420CD9D8F8000020F007002843C8F801
:100E10000000D8F8000000F00700A84237D1206891
:100E2000410707D5D9F80010E26821F4E0611143C9
:100E3000C9F80010000708D5D9F80000216920F48E
:100E4000605040EAC100C9F80000D9F8002002F063
:100E50000C00082841F20020C0F27A0050D14BF279
:100E60000223C2F38341C0F60003595CD2033BD492
:100E700040F60010C0F23D00484341E0606802289F
:100E80000AD001282AD159F8041C890308D401206A
:100E900001B0BDE8F08300BF59F8041C8901F6D504
:100EA000D9F8001021F003010843C9F80000FFF74A
:100EB000A9FE064641F28837D9F80000616800F0C3
:100EC0000C00B0EB810F97D0FFF79CFE801BB8425F
:100ED000F2D9032001B0BDE8F08300BF59F8041C2B
:100EE0008907D4D5DCE700BFD9F800204BF26803AE
:100EF000C2F34042C0F600039A5C4843B0FBF2F0F4
:100F0000D9F800104BF26A02C1F30311C0F60002D7
:100F1000515C40F2300220FA01F140F22800C2F2A6
:100F200000000068C2F200021160FFF793FE00208B
:100F300001B0BDE8F083000040F2300041F204014E
:100F4000C2F20000C4F20201006809684BF27A02A2
:100F5000C1F30221C0F60002515CC8407047000096
:100F600040F2300041F20401C2F20000C4F202017A
:100F7000006809684BF27A02C1F3C221C0F6000290
:100F8000515CC840704700002DE9F04182B0002854
:100F900068D00446007841F20006C007C4F2020699
:100FA00025D0706800F00C0004281BD0706800F099
:100FB0000C00082802D17068C00313D460680028B0
:100FC00000F06881B0F5A02F00F07C81B0F5803F83
:100FD00000F07C81306820F480303060306820F48C
:100FE000802076E13068800301D56068D0B3207836
:100FF000800718D5706810F00C0F07D0706800F0EB
:101000000C0008286ED17068C0036BD4306880076C
:1010100002D52069012825D13068616920F0F800E7
:1010200040EAC1003060207800071FD420784007D4
:1010300032D4E56995B1706800F00C00082840F0E2
:101040008F80012D0ED07068216A00F480328A42B0
:1010500008D1616A00F47010884203D1002002B008
:10106000BDE8F081012002B0BDE8F081A069002850
:1010700062D00020C4F242200121C0F88014FFF7A2
:10108000C1FD0546706A800700F18C80FFF7BAFD4C
:10109000401B0228F6D92AE1F06910F0805808D1E7
:1010A000F06940F08050F061F06900F080500090ED
:1010B000009847F20007C4F200073868C00529D439
:1010C000386840F480703860FFF79CFD054600BF2B
:1010D0003868C0051ED4FFF795FD401B6428F7D97A
:1010E00005E100BF2069002840F20000C4F2422060
:1010F00000F0828001210160FFF784FD054600BFFA
:10110000306880073FF588AFFFF77CFD401B022861
:10111000F6D9ECE0E068002800F08080052800F0B7
:101120009780012800F09880306A20F0010030623A
:10113000306A20F0040092E00020C4F24220002136
:10114000C0F88014FFF75EFD054600BF706A800797
:101150007FF56CAFFFF756FD401B0228F6D9C6E0BD
:101160000027C4F2422700203866FFF74BFD022D0E
:1011700005460BD13068800140F1BE80FFF742FD8B
:10118000401B02284FF00300F4D968E73068800163
:101190007FF564AFFFF736FD401B02284FF00300D8
:1011A000F4D95CE740F23000C2F20000006844F677
:1011B000D351C1F26201A0FB0101480A019000BFB6
:1011C00000BF0198411E002801913FF42FAF00BFDE
:1011D0000198411E002801913FF428AF00BF0198FB
:1011E000411E002801913FF421AF00BF0198411E2C
:1011F00000280191E4D119E700210160FFF702FD09
:10120000054600BF306880077FF50DAFFFF7FAFC99
:10121000401B02284FF00300F4D920E7306A20F089
:1012200001003062306A20F004003062FFF7EAFC0F
:10123000054641F2883700BF306A800720D5FFF7A6
:10124000E1FC401BB8424FF00300F5D907E700BFAF
:10125000306A40F004003062306A40F001003062D1
:10126000FFF7D0FC054641F2883700BF306A80079F
:1012700006D4FFF7C7FC401BB842F7D937E000BFE0
:10128000B8F1000F7FF4D5AEF06920F08050F06126
:10129000CFE600BF306820F480303060306820F442
:1012A00080203060FFF7AEFC054600BF3068800349
:1012B0007FF59DAEFFF7A6FC401B64284FF00300AE
:1012C000F4D9CCE6306840F480203060306840F4D7
:1012D00080303060FFF796FC054600BF3068800321
:1012E0003FF585AEFFF78EFC401B6428F6D903203E
:1012F00002B0BDE8F08100BF206AB0F5803F05D1A3
:101300007168A26821F40031114371607168626AEA
:1013100021F4741110430843706001203866FFF710
:1013200071FC0446306880013FF598AEFFF76AFC17
:10133000001B02284FF00300F4D990E670B538B1D5
:101340000446406A30B10020206104F1140007E037
:10135000012070BD6068B0F5827F03D004F11C00ED
:10136000002101600026A66294F851004FF0000CA5
:1013700038B9204684F8506000F03AF8A06A00F4CA
:10138000005C022184F8511094E80E00E0680D68BA
:1013900002F4827225F040050D6003F404431A4400
:1013A000236900F40060104403F0020263691044F2
:1013B00003F00102A369E569104403F400721044CC
:1013C00005F03802256A104405F08002104340EA17
:1013D0000C000860042000EA13404860C86920F44B
:1013E0000060C8610120666584F85100304670BD18
:1013F00070B586B040F60004C4F20104006804F53C
:10140000205100268842049602D006B070BD00BF6D
:1014100041F21800C4F20200016802AD41F48051AB
:101420000160016801F4805101910199016841F066
:10143000040101600068294600F004000190019851
:10144000A020029002200390032005902046FFF781
:10145000C5FA4020CDE90206204629460496FFF74A
:10146000BDFA06B070BD00002DE9F04381B004461E
:1014700090F85000012803D1022001B0BDE8F083AC
:101480004FF001091D4616460F4684F85090FFF7AD
:10149000B9FB94F85110012972D18046002F4FF00A
:1014A000010018BF002E00F0C2800320002184F844
:1014B000510061652763A686E686A163A187E1875F
:1014C000A0682164B0F5004F2068616407D101680D
:1014D00021F040010160016841F480410160016830
:1014E000490603D4016841F0400101606168731E40
:1014F000E268B1FA81F1B3FA83F349095B09B2F505
:10150000006F41EA03013DD131B137F8021BC160E0
:101510002763E18E0139E186E18E00296CD0691CD8
:101520001BD000BF8168890706D4FFF76BFBA0EBD7
:101530000800A84208D383E0216B31F8022BC26077
:101540002163E08E0138E086E08E002854D02068C8
:1015500081688907E9D5EFE720688168890703D4A6
:10156000FFF750FB08E000BF216B31F8022BC2608F
:101570002163E08E0138E086E08E0028ECD13BE06C
:10158000022054E039B139780173206B01302063B7
:10159000E08E0138E086E08E70B3681C0BD11BE052
:1015A000216B09780173206B01302063E08E0138D4
:1015B000E086E08E00B3206881688907F0D4FFF7E9
:1015C00021FBA0EB0800A842F3D303202FE000BFCB
:1015D000FFF718FBE08E78B1206881688907F7D59E
:1015E000216B09780173206B01302063E08E013894
:1015F000E086E08E0028EFD1204680212A4643462F
:1016000001F03EFE28B1606D40F0200060652020B2
:101610006065A06838B9002000902068C16800911A
:10162000806800900098606D002818BF012000219C
:1016300084F8519084F8501001B0BDE8F08300BFE9
:101640000320F4E72DE9F04381B0044690F8500000
:10165000012803D1022001B0BDE8F08301201E461D
:1016600015460F4684F85000FFF7CCFA94F8511055
:101670008146012940F09A80002F4FF0010018BFE9
:10168000002D00F0A280002E00F09F8094F8510001
:10169000002104281CBF052084F851006165A56362
:1016A000E687A6872763E6862068A68621646164AC
:1016B0000168490603D4016841F040010160616896
:1016C000731EE268B1FA81F1B3FA83F3DDF820808A
:1016D00049095B09B2F5006F41EA030140F07E80E1
:1016E00031B137F8021BC1602763E08E0138E08614
:1016F000012518F1010032D102E000BFFFF782FAA4
:10170000E08E18B9E08F002800F0D0802068816852
:1017100089070CD5E18E012D09D141B1216B00253E
:1017200031F8022BC2602163E18E0139E1868168C4
:10173000C907E3D0E18F0029E0D0C068A16B012583
:1017400021F8020BA163E08F0138E087D6E700BFE4
:10175000FFF758FAA0EB0900404580F0B780E08E13
:1017600018B9E08F002800F0A180206881688907FF
:101770000CD5E18E012D09D141B1216B002531F845
:10178000022BC2602163E18E0139E1868168C907BD
:10179000DED0E18F0029DBD0C068A16B012521F8E4
:1017A000020BA163E08F0138E087D1E76068B0F5F4
:1017B000827F09D104294FF0020006D1A1680029D7
:1017C0003FF45AAF01E000BF0220012184F851101C
:1017D000002184F8501001B0BDE8F08339B13978A8
:1017E0000173206B01302063E08E0138E086012513
:1017F00018F1010032D101E0FFF704FAE08E10B9D0
:10180000E08F002852D02068816889070ED5E18ECC
:10181000012D0BD151B1216B002509780173216B8A
:10182000206801312163E18E0139E1868168C907B1
:10183000E2D0E18F0029DFD0C068A16B01250870DC
:10184000A06B0130A063E08F0138E087D4E700BFD0
:10185000FFF7D8F9A0EB0900404539D2E08E08B96E
:10186000E08F18B32068816889070ED5E18E012DBD
:101870000BD151B1216B002509780173216B2068D0
:1018800001312163E18E0139E1868168C907DFD02A
:10189000E18F0029DCD0C068A16B01250870A06B26
:1018A0000130A063E08F0138E087D1E72046802136
:1018B00042464B4601F0E4FC60B1606D40F0200010
:1018C00060652020606501207FE700BF03207CE782
:1018D00003207AE7A06800284FF000007FF475AF7E
:1018E00000902168CA6800928968009100996CE7AD
:1018F000411E0020B0EB116F1CBF012070474EF25B
:101900001002CEF2000251604EF62351CEF20001D9
:10191000F0230B7007219060116070477047000042
:101920007047000010B501680446C86820F4F070E4
:10193000C860486920F001004861206B012803D18C
:10194000C86820F01000C860606B40B14A6943F27B
:10195000DD331206C0F6000303EAE2724263A26BB3
:101960004AB14B694FEA436C43F2B133C0F600030E
:1019700003EAEC7353634A6912060BD54A6922F0F5
:1019800080024A6130B1FEF7B1FF4FF0000110B1A3
:10199000606B416301212068426952060CD542699F
:1019A00022F040024261A06B30B1FEF79FFF88B188
:1019B000A06B0021416300E061B100202021E084A0
:1019C000E085206484F83D1084F83E1020632046B2
:1019D000FFF7A6FF002010BD70470000B0B582B031
:1019E000026805461068D168546900F02F03202B67
:1019F00001F0200306D12BB1284602B0BDE8B0406B
:101A000001F002BD5FEA007C1EBF04F0010E01F48C
:101A1000907414EB0E042DD12B6B0840C10617D522
:101A2000012B15D1002001901068019050680190A1
:101A300001985069400625D4A88DE98DEB8D002BC7
:101A40001CBF401A5FEA004140F0CA8002B0B0BD3E
:101A5000010645D44006F9D5D068202120F0400089
:101A6000D060284685F83D1002B0BDE8B04000F0D7
:101A7000B9BA00BFC40718BF11F4807442D144073B
:101A800046D44CE0A86B01684B689CB2002CDDD0BA
:101A9000A98D8C42DAD2EB858369202B17D0D168CF
:101AA00021F48071D160516921F0010151615169C6
:101AB00021F040015161202185F83E100021296369
:101AC000D16821F01001D160FEF7ECFEA98DE88D00
:101AD000081A81B2284602B0BDE8B040FFF71EBF29
:101AE00095F83D002128B1D1A868B0F5805F03D1F9
:101AF0002869002800F08C80286A411C296200783F
:101B000050608CE02C6C44F001042C64440706D532
:101B1000BEF1000F03D02C6C44F002042C64840747
:101B200006D5BEF1000F03D02C6C44F004042C64E5
:101B3000BCF1000F06D553EA0E0303D02B6C43F023
:101B400008032B642B6C002B3FF480AF0840800609
:101B500003D5284601F058FC2A685069296C00F02A
:101B6000400001F00801401832D0D06820F4907095
:101B7000D060506920F001005061286B012803D12A
:101B8000D06820F01000D060202085F83E000020B2
:101B900028635069400615D5506920F04000506117
:101BA000A86B78B143F2A531C0F600014163FEF79E
:101BB0009DFE00283FF44AAFA86B416B02B0BDE820
:101BC000B0400847284602B0BDE8B040FFF704BF68
:101BD0002846FFF701FF0020286402B0B0BD00BF17
:101BE000D16821F49071D160516921F001015161F6
:101BF000202185F83E1000212963D16821F01003CF
:101C000081B22846D36002B0BDE8B040FFF786BE7F
:101C1000286A30F8021B6FF35F2151602862E88C5C
:101C200001380104E8847FF411AFD06820F080000F
:101C3000D060D06840F04000D06002B0B0BD00007D
:101C4000002804BF0120704710B5044690F83D00FD
:101C500028B9002084F83C00204600F05FF82420DA
:101C600084F83D002068D4E90212C36823F40053CD
:101C7000C360036923F440531A430261D4E9042387
:101C80001143C268194341F20C639A431143C16086
:101C90004169A26921F44071114343F60002C4F284
:101CA00001029042416103D0FFF746F902E000BF14
:101CB000FFF756F96268192148439100B0FBF1F033
:101CC00048F21F51C5F2EB11A0FB01235A096FF036
:101CD000630302FB0300322303EB0010A0FB0101AE
:101CE000F02303EA5113206803EB0212C1F34311FE
:101CF00011448160016921F490410161416921F041
:101D00002A014161C16841F40051C16000202021D5
:101D1000206484F83D1084F83E1010BD70B586B084
:101D200040F60004C4F20104006804F540510026A6
:101D30008842049602D006B070BD00BF41F2180080
:101D4000C4F20200016802AD41F480410160016803
:101D500001F4804101910199016841F004010160A1
:101D60000068294600F00400019001984FF40070CB
:101D7000029002200390032005902046FEF72EFEDD
:101D80004FF48060CDE90206204629460496FEF70E
:101D900025FE252000210022FEF7B2FF2520FEF7B8
:101DA0009FFF06B070BD0000034690F83E0020285B
:101DB0000AD100294FF0010018BF002A00D1704756
:101DC00093F83C00012801D10220704700201863DD
:101DD000996222219A85DA85186483F83E10196881
:101DE00083F83C00CA6842F48072CA604A6942F0D3
:101DF00001024A61CA6842F02002CA6070470000CE
:101E0000016843F60002C4F20102914218BF704714
:101E100040F2D802C2F2000292F85E3040F2000CAA
:101E200002F15C01C2F2000C0722CCF80030FFF78F
:101E3000BBBF00002DE9F04381B0044690F83D009F
:101E400020280DD10F4600294FF0010000F09280AC
:101E50001646002A00F08E8094F83C00012803D139
:101E6000022001B0BDE8F083012084F83C004FF06F
:101E7000000921201D46C4F8409084F83D00FEF77B
:101E8000C1FEA684E684A1688046B1F5805F25D1B5
:101E9000206900281CBF38464F463E46074684F856
:101EA0003C90E08C00B3681C20D0002D66D12068E7
:101EB0000BE000BF36F8021B00276FF35F21416083
:101EC000E18C0139E184E18C81B30168090675D5A3
:101ED000002FEFD017F8011BF1E700BF002684F8B0
:101EE0003C90E08C0028DED120681FE0206802E0F2
:101EF0000168090609D4016809065FBF01685FEA45
:101F0000016101685FEA0161F2D51FB117F8011B99
:101F100005E000BF36F8021B00276FF35F21416028
:101F2000E18C0139E184E18C0029E4D101684906A2
:101F30001CD4002D42D0691C0ED10168490615D46D
:101F4000016849065CBF01685FEA41610ED401681F
:101F50004906F2D50AE000BFFEF754FEA0EB0801E7
:101F60002068A9422AD800684006F5D5202084F8C8
:101F70003D00002001B0BDE8F08300BF206800BF35
:101F80000168090608D4FEF73DFEA0EB08012068B1
:101F9000A942F5D912E000BF17B117F8011B04E000
:101FA00036F8021B00276FF35F214160E18C013995
:101FB000E184E18C0029E3D1B8E700BFC16821F4D6
:101FC000D071C160416921F001014161202084F894
:101FD0003D0084F83E00002084F83C00032001B05E
:101FE000BDE8F08370470000FEE7000010B540F246
:101FF000B004C2F2000440F23400611CC2F20000DE
:10200000FEF72AFC207010BDFEE70000FEE700008E
:10201000704700002DE9F04784B040F60008C4F294
:102020000108404610210122FEF7E6FD0120FEF7DF
:10203000B3FC42F21869C2F20009D9F80000FF218E
:102040008DF80C10816889075FBF81685FEA817134
:1020500081685FEA817102D481688907F2D503A99A
:10206000484601226423FFF7FFF9D9F80000FF2159
:102070008DF80C10816889075FBF81685FEA817104
:1020800081685FEA817102D481688907F2D503A96A
:10209000484601226423FFF7E7F9D9F80000FF2141
:1020A0008DF80C10816889075FBF81685FEA8171D4
:1020B00081685FEA817102D481688907F2D503A93A
:1020C000484601226423FFF7CFF9D9F80000FF2129
:1020D0008DF80C10816889075FBF81685FEA8171A4
:1020E00081685FEA817102D481688907F2D503A90A
:1020F000484601226423FFF7B7F9D9F80000FF2111
:102100008DF80C10816889075FBF81685FEA817173
:1021100081685FEA817102D481688907F2D503A9D9
:10212000484601226423FFF79FF9D9F80000FF21F8
:102130008DF80C10816889075FBF81685FEA817143
:1021400081685FEA817102D481688907F2D503A9A9
:10215000484601226423FFF787F9D9F80000FF21E0
:102160008DF80C10816889075FBF81685FEA817113
:1021700081685FEA817102D481688907F2D503A979
:10218000484601226423FFF76FF9D9F80000FF21C8
:102190008DF80C10816889075FBF81685FEA8171E3
:1021A00081685FEA817102D481688907F2D503A949
:1021B000484601226423FFF757F9D9F80000FF21B0
:1021C0008DF80C10816889075FBF81685FEA8171B3
:1021D00081685FEA817102D481688907F2D503A919
:1021E000484601226423FFF73FF9D9F80000FF2198
:1021F0008DF80C10816889075FBF81685FEA817183
:1022000081685FEA817102D481688907F2D503A9E8
:10221000484601226423FFF727F940461021002297
:102220000024FEF7E9FC0120FEF7B6FB40208DF804
:102230000600D9F800009521CDF807408DF80B1065
:10224000816889075FBF81685FEA817181685FEAA1
:10225000817102D481688907F2D50DF106014846E3
:10226000062264234FF0640AFFF7FEF841F6FF747C
:10227000FF250DF10E060DF10D0700BFD9F8000086
:102280008DF80E50816889075FBF81685FEA8171B0
:1022900081685FEA817102D481688907F2D5484676
:1022A00031463A460123CDF800A0FFF7CBF9601E76
:1022B000A04204D29DF80D1004460129DED140460B
:1022C00010210122FEF798FC0120FEF765FBD9F8EA
:1022D0000000FF218DF80F108168890709D48168FB
:1022E00089075CBF81685FEA817102D481688907D0
:1022F000F2D542F21860C2F200000DF10F01012286
:1023000064230124FFF7B0F840F2AE00C2F20000EF
:10231000447004B0BDE8F0872DE9F04F83B040F27F
:10232000AA0942F218640E460546C2F20009C82006
:102330004FF0FF0AC2F200044FF0640B0DF10508E4
:1023400001AFA9F8000000BF20688DF805A000BF0C
:10235000816889075FBF81685FEA817181685FEA90
:10236000817102D481688907F2D5204641463A46F8
:102370000123CDF800B0FFF765F99DF80400FF28B0
:1023800004D1B9F800000028DED12DE0FE282BD1C1
:102390004FF0FF094FF0640A0DF107080DF1060731
:1023A00010E000BF204641463A460123CDF800A088
:1023B000FFF748F99DF80600002E05F8010BA6F17D
:1023C000010617D020688DF8079000BF8168890743
:1023D0005FBF81685FEA817181685FEA8171E1D4E2
:1023E00081688907F2D5DDE70024204603B0BDE807
:1023F000F08F00BF2068FF218DF8091081688907E0
:102400005FBF81685FEA817181685FEA817102D490
:1024100081688907F2D564270DF1090102AA2046D7
:1024200001230097FFF70EF92068FF218DF80B10AC
:10243000816889075FBF81685FEA817181685FEAAF
:10244000817102D481688907F2D56420009042F23C
:102450001860C2F200000DF10B010DF10A02012318
:102460000124FFF7EFF8204603B0BDE8F08F00002D
:102470002DE9F04F85B040F2AC0B42F2186A894664
:102480008046C2F2000B4FF4FA70FF25C2F2000A38
:1024900064260DF1090702ACABF80000DAF8000081
:1024A0008DF80950816889075FBF81685FEA817193
:1024B00081685FEA817102D481688907F2D550464C
:1024C0003946224601230096FFF7BCF89DF8080024
:1024D000FF2805D0BBF800000028DFD1FF20EFE087
:1024E000DAF800008DF80A80816889075FBF81688B
:1024F0005FEA817181685FEA817102D4816889072E
:10250000F2D50DF10A01504601226423FEF7ACFF1B
:10251000DAF800004FEA19618DF80B10816889071D
:102520005FBF81685FEA817181685FEA817102D46F
:1025300081688907F2D50DF10B0150460122642311
:10254000FEF792FFDAF800004FEA19418DF80C10FF
:10255000816889075FBF81685FEA817181685FEA8E
:10256000817102D481688907F2D503A950460122FE
:102570006423FEF779FFDAF800004FEA19218DF89D
:102580000D1000BF816889075FBF81685FEA8171B4
:1025900081685FEA817102D481688907F2D50DF103
:1025A0000D01504601226423FEF75EFFDAF80000B9
:1025B0008DF80E90816889075FBF81685FEA81713D
:1025C00081685FEA817102D481688907F2D50DF1D3
:1025D0000E015046012264230124FEF745FFB8F1A5
:1025E000480F08BF6FF07804B8F1400F08BF6FF0D4
:1025F0006A04DAF800008DF80F4000BF816889078F
:102600005FBF81685FEA817181685FEA817102D48E
:1026100081688907F2D542F21865C2F200050DF112
:102620000F012846012264234FF06409FEF71CFFC6
:10263000B8F14C0F1DD12868FF218DF8111000BF93
:10264000816889075FBF81685FEA817181685FEA9D
:10265000817102D481688907F2D542F2186064273B
:10266000C2F200000DF1110104AA01230097FEF748
:10267000E9FF0A274FF0FF080DF113040DF11206D0
:1026800028688DF8138000BF816889075FBF816863
:102690005FEA817181685FEA817102D4816889078C
:1026A000F2D52846214632460123CDF80090FEF7A8
:1026B000C9FF9DF91200013F390601D00028DFD47F
:1026C000C0B205B0BDE8F08F2DE9F04F85B040F203
:1026D000AC0A42F2186489468046C2F2000A4FF4FE
:1026E000FA704FF0FF0BC2F2000464260DF10A07E6
:1026F0000DF10905AAF8000020688DF80AB000BFA6
:10270000816889075FBF81685FEA817181685FEADC
:10271000817102D481688907F2D5204639462A465C
:1027200001230096FEF78EFF9DF80900FF2805D0D3
:10273000BAF800000028DFD11FE000BF20688DF844
:102740000B9000BF816889075FBF81685FEA817174
:1027500081685FEA817102D481688907F2D542F20B
:102760001864C2F200040DF10B012046012264231B
:10277000FEF77AFEB9F1FD0F04D1002005B0BDE8E7
:10278000F08F00BF206800BF816889075FBF816844
:102790005FEA817181685FEA817102D4816889078B
:1027A000F2D5204641464FF400726423FEF75CFEEA
:1027B0002068FF218DF80D10816889075FBF81684F
:1027C0005FEA817181685FEA817102D4816889075B
:1027D000F2D564270DF10D0103AA204601230097CD
:1027E000FEF730FF2068FF218DF80F108168890700
:1027F0005FBF81685FEA817181685FEA817102D49D
:1028000081688907F2D54FF064080DF10F010DF1D1
:102810000E0220460123CDF80080FEF713FF0025AD
:102820004FF0FF0A0DF1110904AE00BF20688DF8CA
:1028300011A000BF816889075FBF81685FEA81716D
:1028400081685FEA817102D481688907F2D52046E8
:10285000494632460123CDF80080FEF7F3FE9DF88D
:10286000100000F01F07052F03D0402D05F10105D2
:10287000DCD34FF0FF084FF064090DF113050DF1A3
:1028800012060AE02046294632460123CDF8009080
:10289000FEF7D8FE9DF8120080B920688DF81380ED
:1028A000816889075FBF81685FEA817181685FEA3B
:1028B0008171E7D481688907F2D5E3E7781FB0FA20
:1028C00080F0400905B0BDE8F08F000000281CBF73
:1028D000012070472DE9F04784B040F22C07C2F286
:1028E00000073878800700F1A28140F60009C4F2A1
:1028F0000109FFF78FFB4846102100220024FEF754
:102900007BF90120FEF748F840200021FFF7B0FDD9
:1029100042F2186A0128C2F2000A40F0568140F2E1
:10292000AA06C2F200064FF47A70308048204FF4B5
:10293000D571FFF79DFD012840F01481DAF8000001
:10294000FF218DF80B1000BF816889075FBF816888
:102950005FEA817181685FEA817102D481688907C9
:10296000F2D564240DF10B010DF10A02504601234A
:102970000094FEF767FEDAF80000FF218DF80B10D7
:10298000816889075FBF81685FEA817181685FEA5A
:10299000817102D481688907F2D564240DF10B019D
:1029A0000DF10A02504601230094FEF74BFEDAF8BF
:1029B0000000FF218DF80B10816889075FBF8168D7
:1029C0005FEA817181685FEA817102D48168890759
:1029D000F2D564240DF10B010DF10A0250460123DA
:1029E0000094FEF72FFE9DF80A40DAF80000FF2160
:1029F0008DF80B10816889075FBF81685FEA81717C
:102A000081685FEA817102D481688907F2D542F258
:102A10001868C2F2000864250DF10B010DF10A02DD
:102A2000404601230095FEF70DFE012C4FF00004F7
:102A300040F0CB809DF80A00AA2803D0C5E000BF73
:102A4000308860B177200021FFF712FD0128F7D808
:102A500069204FF08041FFF70BFD0028F0D130884E
:102A6000002800F0B1807A2000210024FFF700FD4B
:102A7000002840F0AA80D8F80000FF218DF80D1042
:102A8000816889075FBF81685FEA817181685FEA59
:102A9000817102D481688907F2D564260DF10D0198
:102AA00003AA404601230096FEF7CCFD9DF80C409A
:102AB000D8F80000FF218DF80D10816889075FBFED
:102AC00081685FEA817181685FEA817102D48168FF
:102AD0008907F2D564260DF10D0103AA40460123B2
:102AE0000096FEF7AFFDD8F80000FF218DF80D101D
:102AF000816889075FBF81685FEA817181685FEAE9
:102B0000817102D481688907F2D564260DF10D0127
:102B100003AA404601230096FEF794FDD8F8000072
:102B2000FF218DF80D10816889075FBF81685FEA1A
:102B3000817181685FEA817102D481688907F2D569
:102B400042F218606426C2F200000DF10D0103AAE2
:102B500001230096FEF776FD60064FF00C0458BF87
:102B6000042432E077200021FFF782FC012805D8F9
:102B700069200021FFF77CFC012815D941200021A4
:102B8000FFF776FC10B130880028F7D10124308897
:102B9000D0B150204FF40071FFF76AFC002818BF35
:102BA000002412E0308858B177200021FFF760FC44
:102BB0000128F7D869200021FFF75AFC0028F1D13D
:102BC000022430880028E4D1002440F2AE06C2F28C
:102BD00000064846102101223470FEF70DF801204E
:102BE000FDF7DAFEDAF80000FF218DF80F1000BFC4
:102BF000816889075FBF81685FEA817181685FEAE8
:102C0000817102D481688907F2D542F21860642587
:102C1000C2F200000DF10F010DF10E02012300952B
:102C2000FEF710FD44B1387800F0FE0038703878B7
:102C300004B0BDE8F08700BF00207070387804B0A1
:102C4000BDE8F0872DE9F04786B028B10427384663
:102C500006B0BDE8F08700BF16460C46052913D123
:102C60003078022800F07680012800F07F8000286C
:102C7000ECD140F2AE00C2F20000002747703846A7
:102C800006B0BDE8F08700BF40F22C00C2F20000A1
:102C90000078C00758D140F60008C4F20108404649
:102CA00010210022FDF7A8FF0120FDF775FE42F27A
:102CB000186904270D2CC2F2000900F22581DFE813
:102CC00014F00F005D007F00230123012301230185
:102CD0002301230123012301850093009B0000BFF2
:102CE00040F2AC0AC2F2000A4FF4FA70FF256424E5
:102CF0000DF106060DF11707AAF80000D9F800003B
:102D00008DF80650816889075FBF81685FEA81712D
:102D100081685FEA817102D481688907F2D54846EB
:102D200031463A4601230094FEF78CFC9DF81700CB
:102D3000FF2803D0BAF800100029DFD1B0F1FF0757
:102D400018BF0127E0E000BF0327384606B0BDE802
:102D5000F08700BF40F2AE00C2F2000040780027CA
:102D60007070384606B0BDE8F08700BFFFF752F933
:102D70000027384606B0BDE8F08700BF4920002193
:102D8000FFF776FBB0BB0DF106001021FFF7C4FA88
:102D900080B39DF8060000F0C000402840F0E080BD
:102DA0009DF80E009DF80F10800440EA81204FF638
:102DB000004100F58060C0F2FF310840306002E061
:102DC0004FF40070308000279EE000BF49200021B2
:102DD000FFF74EFB70B930461021FFF79DFAB0FAAD
:102DE00080F0470990E000BF4A200021FFF740FB38
:102DF0000028F0D0012787E07A200021FFF738FB78
:102E000010B1042780E000BFD9F80000FF218DF841
:102E10000610816889075FBF81685FEA81718168F8
:102E20005FEA817102D481688907F2D564270DF1C8
:102E300006010DF11702484601230097FEF702FC38
:102E40009DF81700FF213070D9F800008DF80610AA
:102E5000816889075FBF81685FEA817181685FEA85
:102E6000817102D481688907F2D564270DF10601CA
:102E70000DF11702484601230097FEF7E3FB9DF88A
:102E80001700FF217070D9F800008DF806108168D6
:102E900089075FBF81685FEA817181685FEA81713C
:102EA00002D481688907F2D564270DF106010DF17E
:102EB0001702484601230097FEF7C4FB9DF8170050
:102EC000FF21B070D9F800008DF8061081688907DD
:102ED0005FBF81685FEA817181685FEA817102D4B6
:102EE00081688907F2D542F218606427C2F20000B7
:102EF0000DF106010DF1170201230097FEF7A2FB69
:102F00009DF817000427F070404610210122FDF7BC
:102F100073FE0120FDF740FDD9F80000FF218DF878
:102F2000171000BF816889075FBF81685FEA817100
:102F300081685FEA817102D481688907F2D542F223
:102F400018606426C2F200000DF117010DF116029F
:102F500001230096FEF776FB384606B0BDE8F08701
:102F60009DF80B009DF810309DF80D2000F00F002B
:102F70009DF80C1000EBD3109DF80F309DF80E70EB
:102F8000920003F0030342EA971201F0030100EB01
:102F9000430042EA81210131073801FA00F0306034
:102FA00011E700002DE9F04182B04FF0040780BB2B
:102FB0001D4673B340F22C00C2F200000078C00737
:102FC00026D140F2AE00C2F20000007840F60008C0
:102FD0001446C4F2010840070E4658BF540240464A
:102FE00010210022FDF708FE0120FDF7D5FC012D80
:102FF00014D151202146FFF73BFAA0B930464FF4D7
:103000000071FFF789F9B0FA80F0470920E000BFAE
:103010000327384602B0BDE8F08100BF52202146A8
:10302000FFF726FA30B1012712E000BF013D06F597
:10303000007607D030464FF40071FFF76DF9002895
:10304000F4D100E000254C200021FFF711FA2F46B3
:10305000404610210122FDF7CFFD0120FDF79CFC29
:1030600042F21860C2F200000068FF218DF80710DC
:10307000816889075FBF81685FEA817181685FEA63
:10308000817102D481688907F2D542F21860642602
:10309000C2F200000DF107010DF1060201230096B6
:1030A000FEF7D0FA002F18BF0127384602B0BDE85E
:1030B000F081000000281CBF0120704740F22C0066
:1030C000C2F20000007870472DE9F04784B04FF05D
:1030D0000404B0BB1F46A3B340F22C00C2F20000B0
:1030E0000E460178C9072BD1007840072ED440F254
:1030F000AE04C2F20004207840F600081546C4F27F
:103100000108400758BF5502404610210022FDF734
:1031100073FD0120FDF740FC42F21869012FC2F255
:10312000000919D158202946FFF7A2F900285DD1DE
:103130003046FE21FFF7C8FAB0FA80F0440956E0A5
:103140000324204604B0BDE8F08700BF02242046D7
:1031500004B0BDE8F08700BF2078800707D577204E
:103160000021FFF785F957203946FFF781F95920EB
:103170002946FFF77DF9C8BB04E000BF013F06F513
:10318000007605D03046FC21FFF79EFA0028F5D1E5
:1031900040F2AC0AC2F2000A4FF4FA70FF2764262C
:1031A00003AC0DF10B05AAF8000000BFD9F8000030
:1031B0008DF80C70816889075FBF81685FEA817153
:1031C00081685FEA817102D481688907F2D5484637
:1031D00021462A4601230096FEF734FA9DF80B009B
:1031E000FF282FD0BAF800000028DFD10124404684
:1031F00010210122FDF700FD0120FDF7CDFBD9F8DC
:103200000000FF218DF80F10816889075FBF81687A
:103210005FEA817181685FEA817102D48168890700
:10322000F2D542F218606427C2F200000DF10F01DE
:103230000DF10E0201230097FEF704FA204604B0B8
:10324000BDE8F087D9F80000FD218DF80D108168E8
:1032500089075FBF81685FEA817181685FEA817178
:1032600002D481688907F2D542F21860C2F20000E8
:103270000DF10D01012264230124FEF7F5F8B6E7F4
:103280002DE9F04182B01E4690460D460446FDF7FA
:10329000B9FC301A00EB0807FDF7B4FC40F230012E
:1032A000C2F200010968C1F3CB3179430191216871
:1032B0008A682A40AA4227D1064618F101001FD089
:1032C000FDF7A0FC801BB84222D20198019900288A
:1032D000A1F1010101912168896808BF074601EA4F
:1032E0000500A842ECD00FE088682840A8420BD126
:1032F00088682840A84207D188682840A84203D19E
:1033000088682840A842EFD0002002B0BDE8F081D4
:10331000D4E900014268B1F5827F22F0E002426008
:103320000AD1A168B1F5004F02D0B1F5806F03D189
:10333000016821F040010160A16AB1F5005F07D189
:10334000016821F400510160016841F400510160FD
:10335000012084F85100002084F85000032002B0BE
:10336000BDE8F0817047000040F2A800C2F2000002
:1033700001780131017001780A290ED30021017012
:10338000418811B14188013941808188002908BFF5
:10339000FDF73EBC818801398180FDF739BC000012
:1033A00070470000406A0021C185C184FEF714BB4C
:1033B000406A0021D0E90D2359631AB1526B002AEB
:1033C00018BF70472022C184C185016480F83D2068
:1033D00080F83E200163FEF7A3BA0000406A002196
:1033E000D0E90D3259631AB1526B002A18BF7047E9
:1033F0002022C184C185016480F83D2080F83E20F0
:103400000163FEF78DBA000081B090F83E102229CA
:1034100020D18368B3F5805F08D10169002941D0CC
:1034200000F128010A6803685B680AE0014651F868
:10343000282F13B90369002BF5D003685B6803F0EC
:103440007F0313700A6801320A60C18D01390A04D2
:10345000C18501D001B070470168CA6822F020021E
:10346000CA60CA6822F48072CA604A6922F0010206
:103470004A61202280F83E20026B012A1CD10022E2
:103480000263CB6823F01003CB600B68DB0605D525
:1034900000920A680092496800910099818D01B0FC
:1034A000FEF73CBA0168826A49686FF35F2122F82F
:1034B000021B8262C9E700BF01B0FEF7A1BC000099
:1034C00042F27060C2F20000FEF788BAFFF7FEB960
:1034D000FFF7B8BBFFF766BDFFF7ECBDFFF7F4BD24
:1034E000FEE700004EF60C50BFF34F8FCEF2000007
:1034F0000168042201F4E061C0F2FA521143016054
:10350000BFF34F8F00BF00BF00BF00BFFAE700004E
:103510002DE9F04381B0054641F20500894605EBEF
:10352000000849B12846494604F03CF902280DD26A
:10353000012001B0BDE8F083D8F807401CB1D8F8ED
:103540000F00844209D308F10F070AE0411C1FD085
:10355000D8F80F104C46884234D3022C08F10F07DC
:103560001CD2386803280ED3022600BF28463146F5
:1035700004F018F9411C25D040B3012822D0386846
:1035800001368642F2D3002001B0BDE8F08300BFCF
:103590004FF0FF3001B0BDE8F08300BF264600BF0A
:1035A00038680136864228BF02262846314604F094
:1035B000F9F8411C06D048B1012803D0A6424FF0CB
:1035C0000000EDD101B0BDE8F08300BF28463146D0
:1035D0006FF0704207F02EFBB9F1000F014606D0E4
:1035E00029B928464946324607F024FB014639B13D
:1035F0000120012908BF4FF0FF3001B0BDE8F08382
:10360000D8F80B00C8F80760411C08D098F80010E3
:103610000138C8F80B0041F0010088F8000030467E
:1036200001B0BDE8F08300002DE9F04F81B000212A
:10363000804601F04BFA074620B1384601B0BDE89C
:10364000F08F00BF08F5805A4FF6FF70AAF82400EB
:103650004FF0FF0BFF200090DAF8006041F22C00E1
:10366000DAF810503458AC4247D041F2010006EB72
:10367000000999F8030088B399F800003146224602
:103680000123012701F0C0FA0028D6D1D9F81F0084
:10369000D9F81710201A88424FF0000089F803006B
:1036A0001CD299F80270022F18D399F800000C442C
:1036B00031462246012301F0A7FA013F022F0DD324
:1036C000D9F8171099F800000C443146224601231E
:1036D00001F09AFA013F012FF2D800BF99F80000DB
:1036E00031462A460123012701F072FA002818BF4B
:1036F0004FF0FF35C9F82B509FD1DAF814502878D5
:10370000E52809D0002800F0E181E97A0A0701F0F4
:103710003F010FD50F290DD04FF6FF70AAF82400F6
:103720004FF0FF0B4046002100F0DCF9002893D059
:10373000C6E100BF0F290DD1DAF82090B9F1000FD2
:10374000F0D0410668D45FFA8BF18842E8D1009A44
:1037500069E000BF5FEA0B6140D1410841EAC01057
:103760006978AA780844C0B202EBC011EB7801EB8B
:103770005000C0B203EBC0112F7901EB5000C0B272
:1037800007EBC01101EB50006979C0B201EBC01129
:1037900001EB5000A979C0B201EBC01101EB500060
:1037A000E979C0B201EBC01101EB5000297AC0B237
:1037B00001EBC01101EB5000697AC0B201EBC011FE
:1037C00001EB5000C0B24108AA7A41EAC01000994A
:1037D0001044C0B2C9B2814200F07E81DAF818000C
:1037E000C17AC90798D100216A5C435C9A4293D19F
:1037F0006A18431857785E78B7428DD197789E78CB
:10380000B7427FF489AF082900F06681D278DB786F
:1038100004319A42E8D07FE7BAF806106A7B00F0DC
:10382000BF0BAAF82410687BD1B2814200927FF4CA
:1038300077AF28780D2100F0BF0000FB01F7B5F845
:103840000100A7F10D0603F0A7FAFE2E3FF668AFC0
:10385000044639F8160003F09FFA84427FF460AF03
:10386000B5F80300A7F10C0684B103F095FAFE2E1B
:103870003FF656AF044639F8160003F08DFA84423D
:103880007FF44EAFA7F10B0606E000BF4FF6FF71C5
:1038900088427FF445AF0024B5F8050074B103F009
:1038A0007BFAFE2E3FF63CAF044639F8160003F0D3
:1038B00073FA84427FF434AF013605E04FF6FF71AE
:1038C00088427FF42DAF0024B5F8070074B103F0EF
:1038D00063FAFE2E3FF624AF044639F8160003F0D3
:1038E0005BFA84427FF41CAF013605E04FF6FF71AE
:1038F00088427FF415AF0024B5F8090074B103F0D5
:103900004BFAFE2E3FF60CAF044639F8160003F0D2
:1039100043FA84427FF404AF013605E04FF6FF71AD
:1039200088427FF4FDAE0024E8897CB103F034FACC
:10393000FE2E3FF6F5AE044639F8160003F02CFAD9
:1039400084427FF4EDAE013606E000BF4FF6FF7112
:1039500088427FF4E5AE0024288A7CB103F01CFA8B
:10396000FE2E3FF6DDAE044639F8160003F014FAD9
:1039700084427FF4D5AE013606E000BF4FF6FF71FA
:1039800088427FF4CDAE0024688A7CB103F004FA4B
:10399000FE2E3FF6C5AE044639F8160003F0FCF9DA
:1039A00084427FF4BDAE013606E000BF4FF6FF71E2
:1039B00088427FF4B5AE0024A88A7CB103F0ECF90C
:1039C000FE2E3FF6ADAE044639F8160003F0E4F9DA
:1039D00084427FF4A5AE013606E000BF4FF6FF71CA
:1039E00088427FF49DAE0024E88A7CB103F0D4F9CC
:1039F000FE2E3FF695AE044639F8160003F0CCF9DA
:103A000084427FF48DAE013606E000BF4FF6FF71B1
:103A100088427FF485AE0024288B7CB103F0BCF98A
:103A2000FE2E3FF67DAE044639F8160003F0B4F9D9
:103A300084427FF475AE013606E000BF4FF6FF7199
:103A400088427FF46DAE0024A88B7CB103F0A4F90A
:103A5000FE2E3FF665AE044639F8160003F09CF9D9
:103A600084427FF45DAE013606E000BF4FF6FF7181
:103A700088427FF455AE0024E88BCCB103F08CF97A
:103A8000FE2E3FF64DAE044639F8160003F084F9D9
:103A900084427FF445AE002C1CBF287810F0400013
:103AA0000BD0701C39F8100000287FF439AE04E008
:103AB0004FF6FF7188427FF433AEABF1010B31E674
:103AC0000746384601B0BDE8F08F00BF04273846EE
:103AD00001B0BDE8F08F00BF0027384601B0BDE857
:103AE000F08F00002DE9F04F83B041F20602825AB8
:103AF000541C22046CD000F580573A69002A67D024
:103B00003D6841F20A00285A4009B4FBF0F303FB78
:103B10001040E8B90E46F96841F20200284401322B
:103B20003A6189B100784FF6FF72C0F20102104489
:103B300018420CD1284603F035FE022812D2022684
:103B4000304603B0BDE8F08FC088844240D20020E8
:103B500005EB40100026FC807861304603B0BDE8DC
:103B6000F08F00BF411C15D03D6841F2140155F89B
:103B700001C0604514D2861E41F20201ACF102027E
:103B800029449642F86029D20878D1F8262006FB0D
:103B9000002224E00126304603B0BDE8F08F00BFCC
:103BA000B6B1F9682846FFF7B3FC421C032A1FD2BE
:103BB0004FF6F871C0F2FF0101EAC20040F2017154
:103BC000C0F2020121FA00F0C0B203B0BDE8F08FEC
:103BD0000426304603B0BDE8F08F00BF00220889FC
:103BE0003A614009B4FBF0F101FB1040B0E700BFBF
:103BF000D7F800A0029041F204001AF80000B8B310
:103C000041F201000AEB000BDBF82B909BF800005F
:103C100051464A460123012600F0F6FF00289CD1B8
:103C2000DBF81F20DBF81710A9EB020200208A4204
:103C30008BF803001CD29BF80250022D18D39BF87E
:103C4000000009EB010651463246012300F0DCFF7B
:103C5000013D022D0CD3DBF817109BF800000E4439
:103C600051463246012300F0CFFF013D012DF2D82D
:103C70003D6841F20A00295A19B12846FCF7EAFBCF
:103C80003D6841F20202A9180298D1F812C0861EBE
:103C9000ACF10203AA5C9E4204D2D1F8263006FBA6
:103CA000023901E04FF00009002AC1F82A9051D0F2
:103CB000019601264FF0000B0FE000BF3D6841F276
:103CC0000202A818D0F82A100BF1010B01F101092A
:103CD000A95CC0F82A908B4540D241F2010005EB67
:103CE000000A285C29464A4601238AF8036000F04E
:103CF0008BFF00287FF431AFDAF81F00DAF81710D5
:103D0000A9EB000088424FF000008AF80300D5D2EA
:103D10009AF80280B8F1020FD0D39AF800008944D3
:103D200029464A46012300F06FFFA8F10108B8F1C7
:103D3000020FC3D3DAF817109AF800008944294615
:103D40004A46012300F060FFA8F10108B8F1010F15
:103D5000F0D8B3E74FF0000B04E000BFD0F812C07A
:103D6000DDE90160A9EB0B0141F22C02A95003E748
:103D70002DE9F04F83B0804641F2100058F8005012
:103D800008F58059002D00F07B81FF20029041F260
:103D90002C0A01954FF0FF0BD9F8006056F80A4045
:103DA000AC424BD041F2010006EB000A9AF8030046
:103DB00090B39AF80000314622460123012700F013
:103DC00023FF002840F06A81DAF81F00DAF81710A4
:103DD000201A88424FF000008AF803001CD29AF89B
:103DE0000270022F18D39AF800000C443146224684
:103DF000012300F009FF013F022F0DD3DAF817105D
:103E00009AF800000C4431462246012300F0FCFEE3
:103E1000013F012FF2D800BF9AF8000031462A4630
:103E20000123012700F0D4FE002818BF4FF0FF3512
:103E3000CAF82B5041F22C0A40F03081D9F8140016
:103E40000178002900F01E812E2900F0D580E52997
:103E500000F0D280C27A02F01F03082B00F0CC8061
:103E600002F03F020F2A40F021814A0606D45FFA91
:103E70008BF2914240F0C080029B06E0B9F8062028
:103E8000437B01F0BF0BA9F82420417BDAB28A42C0
:103E9000029340F0B18001780D2201F03F0101FB57
:103EA00002F7A7F10D02FE2A00F2A680D9F8201031
:103EB000B0F8016021F81260B0F80330A7F10C02ED
:103EC000D6B1FE2A00F2988021F81230A7F10B0239
:103ED000B0F80570D3B1FE2A00F28E8021F812707E
:103EE0000132B0F80730D7B1FE2A00F2858021F800
:103EF0001230013218E000BF4FF6FF77BB4240F0AE
:103F00007B800023B0F80570002BE4D14FF6FF73DF
:103F10009F4271D10027B0F80730002FE4D14FF64F
:103F2000FF77BB4268D10023B0F8097033B1FE2A95
:103F300062D821F81270013205E000BF4FF6FF731E
:103F40009F4259D10027C38937B1FE2A54D821F89E
:103F50001230013205E000BF4FF6FF77BB424BD174
:103F60000023078A43B1FE2A46D8B7FA87F321F81F
:103F7000127001325F0904E04FF6FF739F423BD19C
:103F80000127438A37B14FF6FF77BB4234D101276F
:103F900008E000BFFE2A2FD821F81230B3FA83F3CD
:103FA00001325F09838A2FB14FF6FF77BB4223D1DD
:103FB000012707E0FE2A1FD821F81230B3FA83F355
:103FC00001325F09C38A2FB14FF6FF77BB4213D18D
:103FD000012707E0FE2A0FD821F81230B3FA83F345
:103FE00001325F09038B2FB14FF6FF77BB4203D13C
:103FF000012715E0FE2A0DD94FF0FF0B40460021A6
:10400000FFF770FD00283FD1D9F81050002D7FF444
:10401000C3AE3BE021F81230B3FA83F301325F09FB
:10402000838B2FB14FF6FF77BB421BD1012307E0F3
:10403000FE2A17D821F81230B3FA83F301325B0954
:10404000C78B2BB14FF6FF739F4206D00AE000BF2B
:10405000FE2A07D821F812700132007840060AD5EE
:10406000FE2A05D94FF0FF0B41F22C0AC6E700BF2C
:10407000002021F81200ABF1010B41F22C0ABDE740
:1040800004270BE0042709E0074607E00198002712
:1040900020B1384603B0BDE8F08F00BF0020C9F85A
:1040A0001000384603B0BDE8F08F00BF5FEA0B6236
:1040B00044D14A0842EAC111427883781144C9B216
:1040C00003EBC112C77802EB5101C9B207EBC11271
:1040D000067902EB5101C9B206EBC11202EB5101A4
:1040E0004279C9B202EBC11202EB51018279C9B225
:1040F00002EBC11202EB5101C279C9B202EBC1124B
:1041000002EB5101027AC9B202EBC11202EB51017A
:10411000427AC9B202EBC11202EB5101C9B24A089C
:10412000807A42EAC11108440299C0B2C9B2814200
:1041300004D10027384603B0BDE8F08F4FF0FF30C0
:10414000A9F824000027384603B0BDE8F08F00002E
:104150002DE9F04F91B041F2180146584FF48151CA
:10416000F27A50F801B0D1070E9000F5805002901D
:1041700006D1900700F19381029C4FF00108B1E154
:10418000317841F221070D9171784FF0000A0C91BE
:10419000B178C0F201070B91F17886F80BA00A9173
:1041A00031794FF00109099171790DF13C080891BD
:1041B000B17900920791F1790691317A0591717A7E
:1041C0000491B17AC0F820A0ABF1020003910190F4
:1041D0000D98B9F1060F30700C984A4670700B9824
:1041E000B0700A98F070099830710898707107984B
:1041F000B0710698F0710598307204987072039847
:10420000B0727BD3BBF800004A46002876D00199F3
:104210004A4600BF00F0010343EA4203120448BFCC
:104220007B40C0F3400242EA43021B0448BF7A408D
:10423000C0F3800343EA4203120448BF7B40C0F34B
:10424000C00242EA43021B0448BF7A40C0F3001395
:1042500043EA4203120448BF7B40C0F3401242EAE3
:1042600043021B0448BF7A40C0F3801343EA420371
:10427000120448BF7B40C0F3C01242EA43021B0451
:1042800048BF7A40C0F3002343EA4203120448BF08
:104290007B40C0F3402242EA43021B0448BF7A40FD
:1042A000C0F3802343EA4203120448BF7B40C0F3BB
:1042B000C02242EA43021B0448BF7A40C0F30033E5
:1042C00043EA4203120448BF7B40C0F3403242EA53
:1042D00043021B0448BF7A40C0F3803343EA4203E1
:1042E000120448BF7B405A0042EAD0321804888842
:1042F00048BF7A40002801F102018BD1072000BF9E
:1043000002F00F0101F13003392B88BF01F13703AF
:10431000BAEB121F08F8003030D0110901F00F017C
:1043200001F13003392B88BF01F1370308EB00019D
:10433000BAEB122F01F8013C28D0130A03F00F0347
:1043400003F13005392D88BF03F13705BAEB123F71
:1043500001F8025C3CD0130B03F00F0303F13005AE
:10436000392D88BF03F137050438BAEB124F4FEAF5
:10437000124201F8035CC3D109E000BF01384FF0DD
:104380007E0108F8001038B929E000BF02384FF06C
:104390007E0108F8001010B342420021735C202B0C
:1043A00020D053185D1C55D075186C78202C53D034
:1043B0009C1C53D0AC78202C52D0033352D0EB78D5
:1043C000202B51D004315318E8D101460AE000BF38
:1043D000033800284FF07E0108F80010DCD10020DF
:1043E000002100BF072801F101039ABF18F800203F
:1043F00001302022082B725421D2072801F1020536
:104400009ABF18F80030013020237218072D53701E
:1044100015D8072801F103059ABF18F800300130BC
:104420002023072D93700AD8072801F104019ABFB1
:1044300018F80030013020230829D370D2D30E9809
:10444000FFF7F2F890B909F10109B9F1640F7FF4AF
:10445000BFAE13E00146C5E70131C3E70146C1E73E
:104460000231BFE70146BDE70331BBE7B9F1640F95
:104470000AD10725284611B0BDE8F08F0725284648
:1044800011B0BDE8F08F00BF05460428F2D1009AB4
:104490000298F272C0F820B090077FF56DAE029CD2
:1044A000002006210BEB010232F8062C8AB10BEB3F
:1044B0004002538853B1928852B13BF80120043036
:1044C000002A01F10801EDD1013802E0013000E0DD
:1044D00002304EF64F411930C4F6C461A0FB010111
:1044E0004FEA91080E98002100F0F0FA05460028E6
:1044F00000F05A81042D08BF0725B8F1010A00F029
:10450000C481002D40F0C181E088A0EB0A010E9823
:1045100000F0DCFA05460028ACD1029C41F22C0BDD
:10452000A0694FF00009017842784E0846EAC111AF
:1045300083781144C9B203EBC112C77802EB510171
:10454000C9B207EBC11202EB51010279C9B202EB09
:10455000C11202EB51014279C9B202EBC11202EB66
:1045600051018279C9B202EBC11202EB5101C27949
:10457000C9B202EBC11202EB5101027AC9B202EBDD
:10458000C11202EB5101427AC9B202EBC11202EB35
:104590005101C9B24A08807A42EAC11100EB010810
:1045A0002768266957F80B40B44249D041F2010010
:1045B00007EB000B9BF8030080B39BF80000394623
:1045C00022460123012500F01FFB00287FF452AF93
:1045D000DBF81F00DBF81710201A88428BF80390D5
:1045E0001CD29BF80250022D18D39BF800000C44FB
:1045F00039462246012300F007FB013D022D0DD371
:10460000DBF817109BF800000C44394622460123C2
:1046100000F0FAFA013D012DF2D800BF9BF800002E
:10462000394632460123012500F0D2FA002818BF8E
:104630004FF0FF36CBF82B6041F22C0B7FF41AAF12
:10464000029C0F226069216AA0F80B205FFA8AF2AF
:104650000D23534380F80D80A0F81A9001EB43021C
:1046600032F81A7C7A1C92B2022AA3F10C02A0F84A
:10467000017026BF31F81270A3F10B024FF6FF77DD
:104680007B1C9BB2A0F80370022B26BF31F81230BE
:1046900001324FF6FF735F1CBFB2A0F80530022F46
:1046A00026BF31F8123001324FF6FF735F1CBFB2E4
:1046B000A0F80730022F26BF31F8123001324FF632
:1046C000FF735F1CBFB2A0F80930022F26BF31F87C
:1046D000123001324FF6FF735F1CBFB2C381022F4D
:1046E00026BF31F8123001324FF6FF735F1CBFB2A4
:1046F0000382022F26BF31F8123001324FF6FF73CA
:104700005F1CBFB24382022F26BF31F81230013244
:104710004FF6FF735F1CBFB28382022F26BF31F8B2
:10472000123001324FF6FF735F1CBFB2C382022FFB
:1047300026BF31F8123001324FF6FF735F1CBFB253
:104740000383022F26BF31F8123001324FF6FF7378
:104750005F1CBFB28383022F26BF31F812300132B3
:104760004FF6FF735F1CBFB2022FC38302D24AF021
:10477000400106E031F812100029514608BF4AF006
:1047800040010170206841F20401012242540E9858
:104790000021FFF7A7F9BAF1010A054675D0002DEF
:1047A0003FF4FEAE71E000BF41F22C0B4FF0000968
:1047B0000AE000BF09F10109C14561D00E9801214D
:1047C000FFF790F9002859D12768266957F80B4060
:1047D000B44249D041F2010007EB000A9AF8030005
:1047E00090B39AF80000394622460123012500F0D3
:1047F0000BFA00287FF43EAEDAF81F00DAF8171043
:10480000201A88424FF000008AF803001CD29AF860
:104810000250022D18D39AF800000C443946224663
:10482000012300F0F1F9013D022D0DD3DAF8171044
:104830009AF800000C4439462246012300F0E4F9BE
:10484000013D012DF2D800BF9AF8000039463246EA
:104850000123012500F0BCF9002818BF4FF0FF36F6
:10486000CAF82B607FF406AE029C60690078E528E8
:10487000A0D000289ED04FF000099FE7054639E6FA
:104880000025B8F1010A7FF43CAE002D7FF4F2ADB3
:1048900002980668D0F8108041F22C00375847453E
:1048A00032D1029B00255869C5618561456105616A
:1048B000C560856045600560D3E9051002780A701F
:1048C00042784A7082788A70C278CA7002790A7116
:1048D00042794A7182798A71C279CA71027A0A72FE
:1048E000427A4A72807A0122887298695969C07A3C
:1048F00000F018000873186841F204014254284679
:1049000011B0BDE8F08F00BF41F201003418E0782B
:1049100070B3207831463A460123012500F074F93E
:1049200000287FF4A7ADD4F81F20D4F81710BA1AC6
:1049300000208A42E0701BD294F80290B9F1020F75
:1049400016D320787D1831462A46012300F05CF901
:10495000A9F10107022F0BD3D4F8171020780D44CA
:1049600031462A46012300F04FF9013F012FF3D8C9
:104970002078314642460123012500F029F900281C
:1049800018BF4FF0FF38C4F82B807FF473AD88E771
:104990002DE9F04F81B0804641F2060038F8005012
:1049A00041F2240038F800104FF6FF708142404673
:1049B00008BF294600F08AF8074618B1384601B00A
:1049C000BDE8F08F08F5805941F22C0B009500BF2F
:1049D000D9F80060D9F810A056F80B4054454BD0D8
:1049E00041F2010006EB000B9BF8030090B39BF82B
:1049F0000000314622460123012700F005F9002876
:104A0000DCD1DBF81F00DBF81710201A88424FF0CA
:104A100000008BF803001DD29BF80270022F19D3FF
:104A20009BF800000C4431462246012300F0ECF8CC
:104A3000013F022F0ED300BFDBF817109BF80000D8
:104A40000C4431462246012300F0DEF8013F012FDD
:104A5000F2D800BF9BF800003146524601230127DF
:104A600000F0B6F8002818BF4FF0FF3A009DCBF8D1
:104A70002BA041F22C0BA1D1D9F814000027C7615B
:104A8000876147610761C760876047600760D9F841
:104A90001400E5210170B9F80600D9F80010A84209
:104AA00041F204004FF001020A54BFF487AF4046C0
:104AB0000021FFF717F800288AD00746042808BF0E
:104AC0000227384601B0BDE8F08F0000F0B581B094
:104AD0000C4641F20801415841F206020129845274
:104AE00051D000F58055286841F214028258914255
:104AF00049D200F58053A9B15F899B787F0907FBF4
:104B000003F6A6422CD98B1E023A93423AD241F2C6
:104B1000020202441778D2F8262003FB0722E9603C
:104B20006AB930E01978032902D1596A0029E3D122
:104B30001989A14227D95A6A0021E9601AB341F2C2
:104B40000A01415A4909B4FBF1F303FB11411A442C
:104B500000EB4110C5E90420002001B0F0BD00BF0A
:104B600041F2140702F01EFE014601300ED0022968
:104B700009D32868C259914205D2A41BB442F1D28C
:104B8000C1E700BFE960022001B0F0BD012001B023
:104B9000F0BD000040F2B051C2F200010A5C002AF0
:104BA0001CBF0020704701230A180B5401EB800042
:104BB0004168107A0968084740F2B05CC2F2000C04
:104BC0000CEB80035B686044007A1B6918470000A7
:104BD00080B540F2B05CC2F2000C0CEB800EDEF847
:104BE00004E06044007ADEF808C0BDE88040604719
:104BF00040F2B051C2F2000101EB80025268084459
:104C0000007A51680847000080B540F2B05CC2F2FB
:104C1000000C0CEB800EDEF804E06044007ADEF855
:104C20000CC0BDE8804060472DE9F0439BB040F2E6
:104C3000D809C2F20009D9F80800002800F0C080A5
:104C4000012840F0BA8040F20004C2F2000420685B
:104C5000042840F0B280632044F8040B43F2620061
:104C600042F27065C3F22C1046F67617C2F20005C8
:104C70000EAE4FF000080F90C2F27307284631467F
:104C8000082264238DF840800E97FDF7D3F828465C
:104C9000214603226423FDF7CDF843F26210C3F2EC
:104CA0002C10CDE90E7028463146082264238DF879
:104CB0004080FDF7BFF82846214603226423FDF714
:104CC000B9F843F26220C3F22C00CDE90E702846F9
:104CD0003146082264238DF84080FDF7ABF8284662
:104CE000214603226423FDF7A5F84BF21227C0F6F4
:104CF00000074BF280224BF2B633C0F60002C0F63A
:104D0000000330463946FBF773FA82B22846314633
:104D10006423FDF78FF82846214603226423FDF71C
:104D200089F84BF286224BF27043C0F60002C0F6BF
:104D3000000330463946FBF75BFA82B2284631461B
:104D40006423FDF777F82846214603226423FDF704
:104D500071F84BF27D224BF22A43C0F60002C0F6F6
:104D6000000330463946FBF743FA82B22846314603
:104D70006423FDF75FF82846214603226423FDF7EC
:104D800059F84BF283224BF23443C0F60002C0F6CE
:104D9000000330463946FBF72BFA82B228463146EB
:104DA0006423FDF747F82846214603226423FDF7D4
:104DB00041F8C9F82C80C9E902881BB0BDE8F0832E
:104DC000D9F82C200DF1060630A13046FBF710FA79
:104DD0004BF21228C0F600084BF280220EACC0F64F
:104DE0000002204641463346FBF702FA42F2706564
:104DF000C2F2000582B2284621466423FDF71AF864
:104E000040F20000C2F20000071D28463946032286
:104E10006423FDF70FF8D9F838201FA13046FBF7BF
:104E2000E7F94BF28622C0F600022046414633469F
:104E3000FBF7DEF982B2284621466423FCF7FAFF2D
:104E40002846394603226423FCF7F4FF4BF2832201
:104E50004BF24643C0F60002C0F60003204641462E
:104E6000FBF7C6F982B2284621466423FCF7E2FF2D
:104E70002846394603226423FCF7DCFFD9F80800F2
:104E80000130C9F808001BB0BDE8F08353636F72AE
:104E900065203D2025640000546F74616C202564FA
:104EA000205175657374696F6E0000002DE9F04F35
:104EB0008DB040F2D807C2F200079346BA68022AC2
:104EC0000AD0012A78D0002A40F074810120B8600D
:104ED0000DB0BDE8F08F00BF40F60044C4F20104FD
:104EE000FBF790FE396B0022401AB0F57A7F20461E
:104EF0004FF400614FF0000A38BF0122FBF77CFE3F
:104F000040F20009C2F20009D9F80000042840F07C
:104F10005181204602210022FBF76EFE204601212E
:104F20000022FBF769FE20464FF400610022FBF7E8
:104F300063FE4BF212284BF2704BC0F600084BF2A6
:104F40008022C0F6000B0DF10204C0F600022046DC
:104F500041465B46FBF74CF942F27065C2F2000530
:104F600082B2284621466423FCF764FF09F1040657
:104F70002846314603226423FCF75CFF4BF286226D
:104F8000C0F60002204641465B46FBF731F982B28B
:104F9000284621466423FCF74DFF2846314603226C
:104FA0006423FCF747FF796B6320C9F80000481CB5
:104FB0007863C7F808A0FDE0044640F60040C4F25C
:104FC0000100A0F580668946304601211D46FBF7A9
:104FD0000DFEB86130460221FBF708FEF86130464D
:104FE0000421FBF703FE386230460821FBF7FEFD83
:104FF00078624BF21227C0F600074BF280220DF1C7
:105000000206C0F60002304639462B46FBF7F0F8A0
:1050100042F27068C2F2000882B240463146642310
:10502000FCF708FF40F20005C2F2000505F1040A92
:105030004046514603226423FCF7FCFE4BF28622D5
:10504000169BC0F6000230463946FBF7D1F882B213
:10505000404631466423FCF7EDFE404651460322AC
:105060006423FCF7E7FE4BF283224BF22343C0F6A6
:105070000002C0F600033046394640F2D807C2F2BB
:105080000007FBF7B5F882B2404631466423FCF7CF
:10509000D1FE4046514603226423FCF7CBFE28682C
:1050A000042840F08780632045F8040BD7E9060107
:1050B0007A6A604081EA0901084382EA0B010843E9
:1050C000B0FA80F04009B862B9464BF212274BF2B1
:1050D0007048C0F600074BF28022C0F600080DF1C0
:1050E0000204C0F60002204639464346FBF780F82A
:1050F00042F27066C2F2000682B230462146642354
:10510000FCF798FE3046294603226423FCF792FE02
:105110004BF28622C0F600022046394643464F46EF
:10512000FBF766F882B2304621466423FCF782FE24
:105130003046294603226423FCF77CFED9F8280078
:105140004BF212214BF28022C0F60001C0F60002A1
:10515000A0B34BF20A430DF10204C0F6000320464F
:10516000FBF746F842F27065C2F2000582B22846AB
:1051700021466423FCF75EFE284651460322642341
:10518000FCF758FEF86A40F600440130C4F201040E
:10519000F862204602210022FBF72EFD2046012165
:1051A0000122FBF729FD20464FF400610022FBF7A6
:1051B00023FD2DE00DB0BDE8F08F00BF4BF2194389
:1051C0000DF10204C0F600032046FBF711F842F28D
:1051D0007065C2F2000582B2284621466423FCF7BE
:1051E00029FE2846514603226423FCF723FE40F69D
:1051F0000044C4F20104204602210122FBF7FCFC1A
:10520000204601210022FBF7F7FCFBF7FBFC38638B
:105210004BF212214BF283224BF24E430DF102046A
:10522000C0F60001C0F60002C0F600032046FAF7FF
:10523000DFFF42F27065C2F2000582B228462146C5
:105240006423FCF7F7FD2846514603226423FCF74C
:10525000F1FDB8680130B8600DB0BDE8F08F000016
:105260002DE9F04F8FB040F2D807C2F20007914607
:10527000BA68022A0AD0012A78D0002A40F07A813E
:105280000120B8600FB0BDE8F08F00BF40F60044C9
:10529000C4F20104FBF7B6FC396B0022401AB0F5EA
:1052A0007A7F20464FF400614FF0000938BF012299
:1052B000FBF7A2FC40F2000BC2F2000BDBF800008F
:1052C000042840F05781204602210022FBF794FC7D
:1052D000204601210022FBF78FFC20464FF400619D
:1052E0000022FBF789FC4BF212284BF2704AC0F601
:1052F00000084BF28022C0F6000A0DF10A04C0F645
:105300000002204641465346FAF772FF42F27065AA
:10531000C2F2000582B2284621466423FCF78AFDCA
:105320000BF104062846314603226423FCF782FD74
:105330004BF28622C0F60002204641465346FAF759
:1053400057FF82B2284621466423FCF773FD2846A6
:10535000314603226423FCF76DFD796B6320CBF8A3
:105360000000481C7863C7F8089003E1054640F642
:105370000040C4F20100A0F580660C46DDF860B084
:10538000304601210193FBF731FCB8613046022120
:10539000FBF72CFCF86130460421FBF727FC386250
:1053A00030460821FBF722FC78624BF21227C0F648
:1053B00000074BF280220DF10A08C0F600024046B9
:1053C00039465B46FAF714FF42F2706AC2F2000AED
:1053D00082B2504641466423FCF72CFD40F20006A1
:1053E000C2F2000606F1040B50465946032264231C
:1053F000FCF720FD4BF28622199BC0F600024046C6
:105400003946FAF7F5FE82B2504641466423FCF76E
:1054100011FD5046594603226423FCF70BFD4BF265
:1054200083224BF22343C0F60002C0F6000340463D
:105430003946FAF7DDFE82B25046414640F2D807BF
:105440006423C2F20007FCF7F5FC504659460322DC
:105450006423FCF7EFFC3068042840F08B80632065
:1054600007F1180346F8040B0FCB6140684008436E
:1054700082EA0901084301994BF2704859400843F8
:10548000B0FA80F04009B8624BF21227C0F600076C
:105490004BF28022C0F600080DF10A04C0F60002AB
:1054A000204639464346FAF7A3FE42F27065C2F23F
:1054B000000582B2284621466423FCF7BBFC28463F
:1054C000314603226423FCF7B5FC4BF28622C0F67A
:1054D000000220463946434640F2D807C2F2000790
:1054E000FAF786FE82B2284621466423FCF7A2FC26
:1054F0002846314603226423FCF79CFCB86A4BF231
:1055000012214BF28022C0F60001C0F60002A8B3BF
:105510004BF20A430DF10A04C0F600032046FAF7E5
:1055200067FE42F27065C2F2000582B2284621464B
:105530006423FCF77FFC2846594603226423FCF7CA
:1055400079FCF86A40F600440130C4F20104F862C4
:10555000204602210022FBF74FFB204601210122B9
:10556000FBF74AFB20464FF400610022FBF744FBA7
:105570002EE000BF0FB0BDE8F08F00BF4BF2194323
:105580000DF10A04C0F600032046FAF731FE42F29C
:105590007065C2F2000582B2284621466423FCF7FA
:1055A00049FC2846594603226423FCF743FC40F695
:1055B0000044C4F20104204602210122FBF71CFB37
:1055C000204601210022FBF717FBFBF71BFB38638A
:1055D0004BF212214BF283224BF24E430DF10A049F
:1055E000C0F60001C0F60002C0F600032046FAF73C
:1055F000FFFD42F27065C2F2000582B228462146E4
:105600006423FCF717FC2846594603226423FCF761
:1056100011FCB8680130B8600FB0BDE8F08F000031
:1056200010B5044600F0EAFE002818BF10BD6CB3A8
:1056300004F58054206848B300F58050017829B300
:10564000C188A288914221D14078FFF7D1FAC007E2
:105650001CD1A06A0138012884BF022010BD40F28D
:10566000B80100EB4000C2F2000101EB8000418A6A
:1056700021F48072002A18BF4A1E1104428204BF1E
:10568000002181600020206010BD00BF092010BDF6
:105690002DE9F04782B08046481E154620EAE079A1
:1056A00000240DF106066F46C2464C451BD000BFD4
:1056B0002846314601223B4600F006FD00980128AD
:1056C00010D19DF806000D28F2D00AF8010B0A2827
:1056D00004F10104E9D100208AF80000404602B03C
:1056E000BDE8F087A14600208AF80000B9F1000F5C
:1056F00008BFC846404602B0BDE8F0872DE9F04F2C
:1057000081B000285CD000F5805704463868002836
:1057100050D000F580500D46017800294AD0C1884C
:10572000BA88914246D14078FFF762FAC00741D16A
:10573000FE79002E45D17A6A002A47D0681C53D0E2
:10574000F868A84238BF0546002DBD6000F0928180
:10575000D7F800E0506841F20101A5F1010C714455
:1057600028B3B1F809304E78BCFBF3F3B3FBF6F382
:1057700002F124068342C0F0C78056F8182CB2B15B
:105780001B1A9342C0F0C48056F8100C78B19B1AD3
:105790008342C0F0C18056F8082C42B11B1A9342D4
:1057A000C0F0BE8056F8200B9B1A0028E2D10020E2
:1057B000B9E000BF0926304601B0BDE8F08F00BF58
:1057C0000926304601B0BDE8F08F00BFFA68AA4252
:1057D0003AD2B879800738D5B84658F8081F002063
:1057E000C8F800003BE000BF934638695BF8048BC3
:1057F0000226E8B141F21409824602360025044629
:105800003868214601F0CEFF012840F2EF80411CAC
:1058100074D0611C013588420446F1D0464598BFDA
:10582000EBE8025A396851F809108842E4D37A6AE1
:10583000464516608EBF11260026CBF80060304624
:1058400001B0BDE8F08F00BF2A46B84658F8081FDF
:105850000020002A1546C8F8000000F0CD80386806
:1058600041F202028318825C1B8903FB02F639B104
:105870006A1E0139B2FBF6F2B1FBF6F39A4203D28B
:10588000396989B3796104E0704208407969B86088
:105890002D1A29B3B54240F28B8041F21408BA792F
:1058A0003868920704D401F07DFF014605E000BF8F
:1058B000FDF72EFE0146002878D0481C1ED0022994
:1058C000C0F09480386850F80800814280F08E80E3
:1058D000B868AD1B3044B5427961B860DFD867E085
:1058E000D8F8000088E000BF0021FDF711FE014656
:1058F000013003D0012979D03961C3E70126FE7157
:10590000304601B0BDE8F08FA6F11C0009E000BFF1
:10591000A6F1140005E000BFA6F10C0001E000BFF5
:10592000301F00681844D1F81320831E023A9342B6
:1059300078615BD24A78D1F8270003FB0200002887
:1059400054D0B1F80930B5FBF3F606FB1355002D22
:1059500000F09080BCFBF3F3013A1340BA691D18C4
:10596000954200F08780B87940060DD50878214629
:1059700001230126FFF748F9002866D1B879D7F846
:1059800000E000F0BF00B87141F201001EF8000015
:1059900021462A4601230126FFF71AF9002854D18F
:1059A000BD610026304601B0BDE8F08F00213546CC
:1059B0003B6841F20A00185ABE68B5FBF0FC0CFBCC
:1059C00010527019B860BAB141F202021344D3F810
:1059D00012200239023A914208D21A78D3F82630BE
:1059E00001FB023111B10CEB010506E00226FE714C
:1059F000304601B0BDE8F08F0025396841F20A0257
:105A00008A5AB0FBF2F303FB12022AB3BA69954239
:105A100022D0B87940060ED541F201000844007842
:105A2000214601230126FFF7EFF870B9B8793968EC
:105A300000F0BF00B87141F20100085C21462A461F
:105A400001230126FFF7C4F820B1FE71304601B0F2
:105A5000BDE8F08FB868BD61F96888420AD9B979A4
:105A6000F86041F020000026B871304601B0BDE872
:105A7000F08F00BF0026304601B0BDE8F08F000077
:105A800010B582B00190009131B34FF0FF3E00BFDE
:105A900001EB0E0C9CF80130202B21D33A2B1FD0A8
:105AA0009CF80230202B27D33A2B25D09CF80330CA
:105AB000202B39D33A2B37D09CF804400EF1040E3A
:105AC000A4F13A03B3FA83F34FEA531C202C1AD300
:105AD0003A2CDDD117E000BF0B21084602B010BD03
